{
  "_format": "hh-sol-artifact-1",
  "contractName": "Bazaar",
  "sourceName": "src/backend/contracts/Bazaar.sol",
  "abi": [
    {
      "inputs": [
        {
          "internalType": "uint256",
          "name": "_commision",
          "type": "uint256"
        }
      ],
      "stateMutability": "nonpayable",
      "type": "constructor"
    },
    {
      "anonymous": false,
      "inputs": [
        {
          "indexed": false,
          "internalType": "uint256",
          "name": "itemId",
          "type": "uint256"
        },
        {
          "indexed": true,
          "internalType": "address",
          "name": "nft",
          "type": "address"
        },
        {
          "indexed": false,
          "internalType": "uint256",
          "name": "nftId",
          "type": "uint256"
        },
        {
          "indexed": false,
          "internalType": "uint256",
          "name": "price",
          "type": "uint256"
        },
        {
          "indexed": true,
          "internalType": "address",
          "name": "seller",
          "type": "address"
        }
      ],
      "name": "Listed",
      "type": "event"
    },
    {
      "anonymous": false,
      "inputs": [
        {
          "indexed": false,
          "internalType": "uint256",
          "name": "itemId",
          "type": "uint256"
        },
        {
          "indexed": true,
          "internalType": "address",
          "name": "nft",
          "type": "address"
        },
        {
          "indexed": false,
          "internalType": "uint256",
          "name": "nftId",
          "type": "uint256"
        },
        {
          "indexed": false,
          "internalType": "uint256",
          "name": "price",
          "type": "uint256"
        },
        {
          "indexed": true,
          "internalType": "address",
          "name": "buyer",
          "type": "address"
        },
        {
          "indexed": true,
          "internalType": "address",
          "name": "seller",
          "type": "address"
        }
      ],
      "name": "Sold",
      "type": "event"
    },
    {
      "anonymous": false,
      "inputs": [
        {
          "indexed": false,
          "internalType": "string",
          "name": "msg",
          "type": "string"
        },
        {
          "indexed": true,
          "internalType": "address",
          "name": "sender",
          "type": "address"
        }
      ],
      "name": "errMsg",
      "type": "event"
    },
    {
      "inputs": [
        {
          "internalType": "uint256",
          "name": "_itemId",
          "type": "uint256"
        }
      ],
      "name": "PurchaseItem",
      "outputs": [],
      "stateMutability": "payable",
      "type": "function"
    },
    {
      "inputs": [
        {
          "components": [
            {
              "internalType": "uint256",
              "name": "itemId",
              "type": "uint256"
            },
            {
              "internalType": "contract IERC721",
              "name": "nft",
              "type": "address"
            },
            {
              "internalType": "uint256",
              "name": "nftId",
              "type": "uint256"
            },
            {
              "internalType": "uint256",
              "name": "price",
              "type": "uint256"
            },
            {
              "internalType": "address payable",
              "name": "seller",
              "type": "address"
            },
            {
              "internalType": "bool",
              "name": "sold",
              "type": "bool"
            }
          ],
          "internalType": "struct Bazaar.Item",
          "name": "_item",
          "type": "tuple"
        }
      ],
      "name": "comission",
      "outputs": [
        {
          "internalType": "uint256",
          "name": "",
          "type": "uint256"
        }
      ],
      "stateMutability": "view",
      "type": "function"
    },
    {
      "inputs": [
        {
          "internalType": "contract IERC721",
          "name": "_nft",
          "type": "address"
        },
        {
          "internalType": "uint256",
          "name": "_nftId",
          "type": "uint256"
        },
        {
          "internalType": "uint256",
          "name": "_price",
          "type": "uint256"
        }
      ],
      "name": "createItem",
      "outputs": [],
      "stateMutability": "nonpayable",
      "type": "function"
    },
    {
      "inputs": [
        {
          "internalType": "uint256",
          "name": "",
          "type": "uint256"
        }
      ],
      "name": "items",
      "outputs": [
        {
          "internalType": "uint256",
          "name": "itemId",
          "type": "uint256"
        },
        {
          "internalType": "contract IERC721",
          "name": "nft",
          "type": "address"
        },
        {
          "internalType": "uint256",
          "name": "nftId",
          "type": "uint256"
        },
        {
          "internalType": "uint256",
          "name": "price",
          "type": "uint256"
        },
        {
          "internalType": "address payable",
          "name": "seller",
          "type": "address"
        },
        {
          "internalType": "bool",
          "name": "sold",
          "type": "bool"
        }
      ],
      "stateMutability": "view",
      "type": "function"
    },
    {
      "inputs": [],
      "name": "s_commision",
      "outputs": [
        {
          "internalType": "uint256",
          "name": "",
          "type": "uint256"
        }
      ],
      "stateMutability": "view",
      "type": "function"
    },
    {
      "inputs": [],
      "name": "s_commisionAccount",
      "outputs": [
        {
          "internalType": "address payable",
          "name": "",
          "type": "address"
        }
      ],
      "stateMutability": "view",
      "type": "function"
    },
    {
      "inputs": [],
      "name": "s_itemCount",
      "outputs": [
        {
          "internalType": "uint256",
          "name": "",
          "type": "uint256"
        }
      ],
      "stateMutability": "view",
      "type": "function"
    }
  ],
  "bytecode": "0x60c06040523480156200001157600080fd5b50604051620015043803806200150483398181016040528101906200003791906200009c565b60016000819055508060a081815250503373ffffffffffffffffffffffffffffffffffffffff1660808173ffffffffffffffffffffffffffffffffffffffff1660601b8152505050620000ec565b6000815190506200009681620000d2565b92915050565b600060208284031215620000af57600080fd5b6000620000bf8482850162000085565b91505092915050565b6000819050919050565b620000dd81620000c8565b8114620000e957600080fd5b50565b60805160601c60a0516113e162000123600039600081816101bc01526105690152600081816101e0015261080a01526113e16000f3fe6080604052600436106100705760003560e01c806357baf0fb1161004e57806357baf0fb146100f6578063bfb231d21461011f578063e1a1460714610161578063eff01f8d1461019e57610070565b80631f2cb6af146100755780633b55c77f146100a05780634c3fee9a146100cb575b600080fd5b34801561008157600080fd5b5061008a6101ba565b6040516100979190610ee3565b60405180910390f35b3480156100ac57600080fd5b506100b56101de565b6040516100c29190610dd1565b60405180910390f35b3480156100d757600080fd5b506100e0610202565b6040516100ed9190610ee3565b60405180910390f35b34801561010257600080fd5b5061011d60048036038101906101189190610c13565b610208565b005b34801561012b57600080fd5b5061014660048036038101906101419190610c8b565b6104da565b60405161015896959493929190610efe565b60405180910390f35b34801561016d57600080fd5b5061018860048036038101906101839190610c62565b610563565b6040516101959190610ee3565b60405180910390f35b6101b860048036038101906101b39190610c8b565b6105a8565b005b7f000000000000000000000000000000000000000000000000000000000000000081565b7f000000000000000000000000000000000000000000000000000000000000000081565b60015481565b6002600054141561024e576040517f08c379a000000000000000000000000000000000000000000000000000000000815260040161024590610ea3565b60405180910390fd5b600260008190555060008111610299576040517f08c379a000000000000000000000000000000000000000000000000000000000815260040161029090610e63565b60405180910390fd5b600160008154809291906102ac9061114c565b91905055508273ffffffffffffffffffffffffffffffffffffffff166323b872dd3330856040518463ffffffff1660e01b81526004016102ee93929190610dec565b600060405180830381600087803b15801561030857600080fd5b505af115801561031c573d6000803e3d6000fd5b505050506040518060c0016040528060015481526020018473ffffffffffffffffffffffffffffffffffffffff1681526020018381526020018281526020013373ffffffffffffffffffffffffffffffffffffffff168152602001600015158152506002600060015481526020019081526020016000206000820151816000015560208201518160010160006101000a81548173ffffffffffffffffffffffffffffffffffffffff021916908373ffffffffffffffffffffffffffffffffffffffff160217905550604082015181600201556060820151816003015560808201518160040160006101000a81548173ffffffffffffffffffffffffffffffffffffffff021916908373ffffffffffffffffffffffffffffffffffffffff16021790555060a08201518160040160146101000a81548160ff0219169083151502179055509050503373ffffffffffffffffffffffffffffffffffffffff168373ffffffffffffffffffffffffffffffffffffffff167f0d770f67a166dfb160ca3991c3a328328d7d3899464a55a6fa63448ceda4952360015485856040516104c593929190610f5f565b60405180910390a36001600081905550505050565b60026020528060005260406000206000915090508060000154908060010160009054906101000a900473ffffffffffffffffffffffffffffffffffffffff16908060020154908060030154908060040160009054906101000a900473ffffffffffffffffffffffffffffffffffffffff16908060040160149054906101000a900460ff16905086565b600060647f00000000000000000000000000000000000000000000000000000000000000006105929190610fcc565b82606001516105a19190610ffd565b9050919050565b600260005414156105ee576040517f08c379a00000000000000000000000000000000000000000000000000000000081526004016105e590610ea3565b60405180910390fd5b6002600081905550600060026000838152602001908152602001600020905060008211801561061f57506001548211155b61065e576040517f08c379a000000000000000000000000000000000000000000000000000000000815260040161065590610e83565b60405180910390fd5b80600301543410156106a5576040517f08c379a000000000000000000000000000000000000000000000000000000000815260040161069c90610e43565b60405180910390fd5b8060040160149054906101000a900460ff16156106f7576040517f08c379a00000000000000000000000000000000000000000000000000000000081526004016106ee90610ec3565b60405180910390fd5b60006107f2826040518060c0016040529081600082015481526020016001820160009054906101000a900473ffffffffffffffffffffffffffffffffffffffff1673ffffffffffffffffffffffffffffffffffffffff1673ffffffffffffffffffffffffffffffffffffffff16815260200160028201548152602001600382015481526020016004820160009054906101000a900473ffffffffffffffffffffffffffffffffffffffff1673ffffffffffffffffffffffffffffffffffffffff1673ffffffffffffffffffffffffffffffffffffffff1681526020016004820160149054906101000a900460ff161515151581525050610563565b905060008183600301546108069190611057565b90507f000000000000000000000000000000000000000000000000000000000000000073ffffffffffffffffffffffffffffffffffffffff166108fc839081150290604051600060405180830381858888f1935050505015801561086e573d6000803e3d6000fd5b508260040160009054906101000a900473ffffffffffffffffffffffffffffffffffffffff1673ffffffffffffffffffffffffffffffffffffffff166108fc829081150290604051600060405180830381858888f193505050501580156108d9573d6000803e3d6000fd5b508260010160009054906101000a900473ffffffffffffffffffffffffffffffffffffffff1673ffffffffffffffffffffffffffffffffffffffff166323b872dd303386600201546040518463ffffffff1660e01b815260040161093f93929190610dec565b600060405180830381600087803b15801561095957600080fd5b505af115801561096d573d6000803e3d6000fd5b5050505060018360040160146101000a81548160ff02191690831515021790555060008360030154346109a09190611057565b905060008111156109f7573373ffffffffffffffffffffffffffffffffffffffff166108fc829081150290604051600060405180830381858888f193505050501580156109f1573d6000803e3d6000fd5b50610a44565b3373ffffffffffffffffffffffffffffffffffffffff167f685760b013c9cff94bd3dd82b3d0821df19322a4c9a36c878f5a243fdcd1502d604051610a3b90610e23565b60405180910390a25b8360040160009054906101000a900473ffffffffffffffffffffffffffffffffffffffff1673ffffffffffffffffffffffffffffffffffffffff163373ffffffffffffffffffffffffffffffffffffffff168560010160009054906101000a900473ffffffffffffffffffffffffffffffffffffffff1673ffffffffffffffffffffffffffffffffffffffff167f3a8685b62d01a68e1127184fa7e29f3df763038cecc4d6e0cf9df79d92a0ad898888600201548960030154604051610b0c93929190610f5f565b60405180910390a450505050600160008190555050565b600081359050610b328161134f565b92915050565b600081359050610b4781611366565b92915050565b600081359050610b5c8161137d565b92915050565b600060c08284031215610b7457600080fd5b610b7e60c0610f96565b90506000610b8e84828501610bfe565b6000830152506020610ba284828501610b4d565b6020830152506040610bb684828501610bfe565b6040830152506060610bca84828501610bfe565b6060830152506080610bde84828501610b23565b60808301525060a0610bf284828501610b38565b60a08301525092915050565b600081359050610c0d81611394565b92915050565b600080600060608486031215610c2857600080fd5b6000610c3686828701610b4d565b9350506020610c4786828701610bfe565b9250506040610c5886828701610bfe565b9150509250925092565b600060c08284031215610c7457600080fd5b6000610c8284828501610b62565b91505092915050565b600060208284031215610c9d57600080fd5b6000610cab84828501610bfe565b91505092915050565b610cbd8161109d565b82525050565b610ccc8161108b565b82525050565b610cdb816110af565b82525050565b610cea816110f7565b82525050565b6000610cfd601883610fbb565b9150610d0882611233565b602082019050919050565b6000610d20602f83610fbb565b9150610d2b8261125c565b604082019050919050565b6000610d43601e83610fbb565b9150610d4e826112ab565b602082019050919050565b6000610d66601283610fbb565b9150610d71826112d4565b602082019050919050565b6000610d89601f83610fbb565b9150610d94826112fd565b602082019050919050565b6000610dac601083610fbb565b9150610db782611326565b602082019050919050565b610dcb816110ed565b82525050565b6000602082019050610de66000830184610cb4565b92915050565b6000606082019050610e016000830186610cc3565b610e0e6020830185610cc3565b610e1b6040830184610dc2565b949350505050565b60006020820190508181036000830152610e3c81610cf0565b9050919050565b60006020820190508181036000830152610e5c81610d13565b9050919050565b60006020820190508181036000830152610e7c81610d36565b9050919050565b60006020820190508181036000830152610e9c81610d59565b9050919050565b60006020820190508181036000830152610ebc81610d7c565b9050919050565b60006020820190508181036000830152610edc81610d9f565b9050919050565b6000602082019050610ef86000830184610dc2565b92915050565b600060c082019050610f136000830189610dc2565b610f206020830188610ce1565b610f2d6040830187610dc2565b610f3a6060830186610dc2565b610f476080830185610cb4565b610f5460a0830184610cd2565b979650505050505050565b6000606082019050610f746000830186610dc2565b610f816020830185610dc2565b610f8e6040830184610dc2565b949350505050565b6000610fa0610fb1565b9050610fac828261111b565b919050565b6000604051905090565b600082825260208201905092915050565b6000610fd7826110ed565b9150610fe2836110ed565b925082610ff257610ff16111c4565b5b828204905092915050565b6000611008826110ed565b9150611013836110ed565b9250817fffffffffffffffffffffffffffffffffffffffffffffffffffffffffffffffff048311821515161561104c5761104b611195565b5b828202905092915050565b6000611062826110ed565b915061106d836110ed565b9250828210156110805761107f611195565b5b828203905092915050565b6000611096826110cd565b9050919050565b60006110a8826110cd565b9050919050565b60008115159050919050565b60006110c68261108b565b9050919050565b600073ffffffffffffffffffffffffffffffffffffffff82169050919050565b6000819050919050565b600061110282611109565b9050919050565b6000611114826110cd565b9050919050565b61112482611222565b810181811067ffffffffffffffff82111715611143576111426111f3565b5b80604052505050565b6000611157826110ed565b91507fffffffffffffffffffffffffffffffffffffffffffffffffffffffffffffffff82141561118a57611189611195565b5b600182019050919050565b7f4e487b7100000000000000000000000000000000000000000000000000000000600052601160045260246000fd5b7f4e487b7100000000000000000000000000000000000000000000000000000000600052601260045260246000fd5b7f4e487b7100000000000000000000000000000000000000000000000000000000600052604160045260246000fd5b6000601f19601f8301169050919050565b7f6e6f20726566756e6420746f20746869732073656e6465720000000000000000600082015250565b7f6e6f7420656e6f75676820657468657220746f20707572636861736520616e6460008201527f20636f7665722067617320666565730000000000000000000000000000000000602082015250565b7f70726963652068617320746f2062652067726561746572207468616e20300000600082015250565b7f4e465420646f6573206e6f742065786973740000000000000000000000000000600082015250565b7f5265656e7472616e637947756172643a207265656e7472616e742063616c6c00600082015250565b7f4e465420616c726561647920736f6c6400000000000000000000000000000000600082015250565b6113588161109d565b811461136357600080fd5b50565b61136f816110af565b811461137a57600080fd5b50565b611386816110bb565b811461139157600080fd5b50565b61139d816110ed565b81146113a857600080fd5b5056fea26469706673582212207ae44de234a5db678933f85e2608d8283a30bda2992ab56af5e2d51618269d8764736f6c63430008040033",
  "linkReferences": {},
  "deployedLinkReferences": {}
}