{
  "_format": "hh-sol-artifact-1",
  "contractName": "Bazaar",
  "sourceName": "src/backend/contracts/Bazaar.sol",
  "abi": [
    {
      "inputs": [
        {
          "internalType": "uint256",
          "name": "_commision",
          "type": "uint256"
        }
      ],
      "stateMutability": "nonpayable",
      "type": "constructor"
    },
    {
      "anonymous": false,
      "inputs": [
        {
          "indexed": true,
          "internalType": "address",
          "name": "nft",
          "type": "address"
        },
        {
          "indexed": false,
          "internalType": "uint256",
          "name": "nftId",
          "type": "uint256"
        },
        {
          "indexed": false,
          "internalType": "uint256",
          "name": "price",
          "type": "uint256"
        },
        {
          "indexed": true,
          "internalType": "address",
          "name": "owner",
          "type": "address"
        }
      ],
      "name": "Listed",
      "type": "event"
    },
    {
      "anonymous": false,
      "inputs": [
        {
          "indexed": true,
          "internalType": "address",
          "name": "nft",
          "type": "address"
        },
        {
          "indexed": false,
          "internalType": "uint256",
          "name": "nftId",
          "type": "uint256"
        },
        {
          "indexed": false,
          "internalType": "uint256",
          "name": "price",
          "type": "uint256"
        },
        {
          "indexed": true,
          "internalType": "address",
          "name": "owner",
          "type": "address"
        }
      ],
      "name": "Sold",
      "type": "event"
    },
    {
      "anonymous": false,
      "inputs": [
        {
          "indexed": false,
          "internalType": "string",
          "name": "msg",
          "type": "string"
        },
        {
          "indexed": true,
          "internalType": "address",
          "name": "sender",
          "type": "address"
        }
      ],
      "name": "errMsg",
      "type": "event"
    },
    {
      "inputs": [
        {
          "internalType": "uint256",
          "name": "_nftId",
          "type": "uint256"
        }
      ],
      "name": "PurchaseItem",
      "outputs": [],
      "stateMutability": "payable",
      "type": "function"
    },
    {
      "inputs": [
        {
          "internalType": "uint256",
          "name": "_price",
          "type": "uint256"
        }
      ],
      "name": "comission",
      "outputs": [
        {
          "internalType": "uint256",
          "name": "",
          "type": "uint256"
        }
      ],
      "stateMutability": "view",
      "type": "function"
    },
    {
      "inputs": [
        {
          "internalType": "contract IERC721",
          "name": "_nft",
          "type": "address"
        },
        {
          "internalType": "uint256",
          "name": "_nftId",
          "type": "uint256"
        },
        {
          "internalType": "uint256",
          "name": "_price",
          "type": "uint256"
        }
      ],
      "name": "createItem",
      "outputs": [],
      "stateMutability": "nonpayable",
      "type": "function"
    },
    {
      "inputs": [],
      "name": "getBalance",
      "outputs": [
        {
          "internalType": "uint256",
          "name": "",
          "type": "uint256"
        }
      ],
      "stateMutability": "view",
      "type": "function"
    },
    {
      "inputs": [
        {
          "internalType": "uint256",
          "name": "",
          "type": "uint256"
        }
      ],
      "name": "items",
      "outputs": [
        {
          "internalType": "contract IERC721",
          "name": "nft",
          "type": "address"
        },
        {
          "internalType": "uint256",
          "name": "nftId",
          "type": "uint256"
        },
        {
          "internalType": "uint256",
          "name": "price",
          "type": "uint256"
        },
        {
          "internalType": "address payable",
          "name": "owner",
          "type": "address"
        },
        {
          "internalType": "bool",
          "name": "sold",
          "type": "bool"
        }
      ],
      "stateMutability": "view",
      "type": "function"
    },
    {
      "inputs": [],
      "name": "s_commision",
      "outputs": [
        {
          "internalType": "uint256",
          "name": "",
          "type": "uint256"
        }
      ],
      "stateMutability": "view",
      "type": "function"
    },
    {
      "inputs": [],
      "name": "s_commisionAccount",
      "outputs": [
        {
          "internalType": "address payable",
          "name": "",
          "type": "address"
        }
      ],
      "stateMutability": "view",
      "type": "function"
    },
    {
      "inputs": [],
      "name": "s_itemCount",
      "outputs": [
        {
          "internalType": "uint256",
          "name": "",
          "type": "uint256"
        }
      ],
      "stateMutability": "view",
      "type": "function"
    },
    {
      "inputs": [
        {
          "internalType": "uint256",
          "name": "",
          "type": "uint256"
        }
      ],
      "name": "s_owners",
      "outputs": [
        {
          "internalType": "address",
          "name": "",
          "type": "address"
        }
      ],
      "stateMutability": "view",
      "type": "function"
    }
  ],
  "bytecode": "0x60c060405234801561001057600080fd5b50604051620013fd380380620013fd83398181016040528101906100349190610096565b60016000819055508060a081815250503373ffffffffffffffffffffffffffffffffffffffff1660808173ffffffffffffffffffffffffffffffffffffffff1660601b81525050506100e0565b600081519050610090816100c9565b92915050565b6000602082840312156100a857600080fd5b60006100b684828501610081565b91505092915050565b6000819050919050565b6100d2816100bf565b81146100dd57600080fd5b50565b60805160601c60a0516112e662000117600039600081816102410152610608015260008181610265015261083c01526112e66000f3fe6080604052600436106100865760003560e01c806357baf0fb1161005957806357baf0fb14610137578063aeaf969814610160578063bfb231d21461019d578063eff01f8d146101de578063f6caf71f146101fa57610086565b806312065fe01461008b5780631f2cb6af146100b65780633b55c77f146100e15780634c3fee9a1461010c575b600080fd5b34801561009757600080fd5b506100a0610237565b6040516100ad9190610f1b565b60405180910390f35b3480156100c257600080fd5b506100cb61023f565b6040516100d89190610f1b565b60405180910390f35b3480156100ed57600080fd5b506100f6610263565b6040516101039190610db6565b60405180910390f35b34801561011857600080fd5b50610121610287565b60405161012e9190610f1b565b60405180910390f35b34801561014357600080fd5b5061015e60048036038101906101599190610c06565b61028d565b005b34801561016c57600080fd5b5061018760048036038101906101829190610c55565b610602565b6040516101949190610f1b565b60405180910390f35b3480156101a957600080fd5b506101c460048036038101906101bf9190610c55565b610643565b6040516101d5959493929190610e08565b60405180910390f35b6101f860048036038101906101f39190610c55565b6106c6565b005b34801561020657600080fd5b50610221600480360381019061021c9190610c55565b610ba9565b60405161022e9190610d9b565b60405180910390f35b600047905090565b7f000000000000000000000000000000000000000000000000000000000000000081565b7f000000000000000000000000000000000000000000000000000000000000000081565b60015481565b600260005414156102d3576040517f08c379a00000000000000000000000000000000000000000000000000000000081526004016102ca90610edb565b60405180910390fd5b60026000819055506000811161031e576040517f08c379a000000000000000000000000000000000000000000000000000000000815260040161031590610e9b565b60405180910390fd5b8273ffffffffffffffffffffffffffffffffffffffff166323b872dd3330856040518463ffffffff1660e01b815260040161035b93929190610dd1565b600060405180830381600087803b15801561037557600080fd5b505af1158015610389573d6000803e3d6000fd5b505050506040518060a001604052808473ffffffffffffffffffffffffffffffffffffffff1681526020018381526020018281526020013373ffffffffffffffffffffffffffffffffffffffff168152602001600015158152506002600084815260200190815260200160002060008201518160000160006101000a81548173ffffffffffffffffffffffffffffffffffffffff021916908373ffffffffffffffffffffffffffffffffffffffff160217905550602082015181600101556040820151816002015560608201518160030160006101000a81548173ffffffffffffffffffffffffffffffffffffffff021916908373ffffffffffffffffffffffffffffffffffffffff16021790555060808201518160030160146101000a81548160ff021916908315150217905550905050600073ffffffffffffffffffffffffffffffffffffffff166003600084815260200190815260200160002060009054906101000a900473ffffffffffffffffffffffffffffffffffffffff1673ffffffffffffffffffffffffffffffffffffffff16141561053c5760016000815480929190610536906110bf565b91905055505b336003600084815260200190815260200160002060006101000a81548173ffffffffffffffffffffffffffffffffffffffff021916908373ffffffffffffffffffffffffffffffffffffffff1602179055503373ffffffffffffffffffffffffffffffffffffffff168373ffffffffffffffffffffffffffffffffffffffff167f7a1ff488a7e990cc14e44384efb6a191ef4d61c36243803d68995a7f6b5b133684846040516105ed929190610f36565b60405180910390a36001600081905550505050565b600060647f00000000000000000000000000000000000000000000000000000000000000006106319190610f70565b8261063c9190610fa1565b9050919050565b60026020528060005260406000206000915090508060000160009054906101000a900473ffffffffffffffffffffffffffffffffffffffff16908060010154908060020154908060030160009054906101000a900473ffffffffffffffffffffffffffffffffffffffff16908060030160149054906101000a900460ff16905085565b6002600054141561070c576040517f08c379a000000000000000000000000000000000000000000000000000000000815260040161070390610edb565b60405180910390fd5b6002600081905550600060026000838152602001908152602001600020905060008211801561073d57506001548211155b61077c576040517f08c379a000000000000000000000000000000000000000000000000000000000815260040161077390610ebb565b60405180910390fd5b80600201543410156107c3576040517f08c379a00000000000000000000000000000000000000000000000000000000081526004016107ba90610e7b565b60405180910390fd5b8060030160149054906101000a900460ff1615610815576040517f08c379a000000000000000000000000000000000000000000000000000000000815260040161080c90610efb565b60405180910390fd5b60006108248260020154610602565b905060008183600201546108389190610ffb565b90507f000000000000000000000000000000000000000000000000000000000000000073ffffffffffffffffffffffffffffffffffffffff166108fc839081150290604051600060405180830381858888f193505050501580156108a0573d6000803e3d6000fd5b508260030160009054906101000a900473ffffffffffffffffffffffffffffffffffffffff1673ffffffffffffffffffffffffffffffffffffffff166108fc829081150290604051600060405180830381858888f1935050505015801561090b573d6000803e3d6000fd5b508260000160009054906101000a900473ffffffffffffffffffffffffffffffffffffffff1673ffffffffffffffffffffffffffffffffffffffff166323b872dd3033876040518463ffffffff1660e01b815260040161096d93929190610dd1565b600060405180830381600087803b15801561098757600080fd5b505af115801561099b573d6000803e3d6000fd5b5050505060018360030160146101000a81548160ff02191690831515021790555060008360020154346109ce9190610ffb565b90506000811115610a25573373ffffffffffffffffffffffffffffffffffffffff166108fc829081150290604051600060405180830381858888f19350505050158015610a1f573d6000803e3d6000fd5b50610a72565b3373ffffffffffffffffffffffffffffffffffffffff167f685760b013c9cff94bd3dd82b3d0821df19322a4c9a36c878f5a243fdcd1502d604051610a6990610e5b565b60405180910390a25b336003600087815260200190815260200160002060006101000a81548173ffffffffffffffffffffffffffffffffffffffff021916908373ffffffffffffffffffffffffffffffffffffffff160217905550338460030160006101000a81548173ffffffffffffffffffffffffffffffffffffffff021916908373ffffffffffffffffffffffffffffffffffffffff1602179055503373ffffffffffffffffffffffffffffffffffffffff168460000160009054906101000a900473ffffffffffffffffffffffffffffffffffffffff1673ffffffffffffffffffffffffffffffffffffffff167f3d17ff2a551d765264bd7f578382ba047a7c0808e58e65ced2ac069b6a76169586600101548760020154604051610b92929190610f36565b60405180910390a350505050600160008190555050565b60036020528060005260406000206000915054906101000a900473ffffffffffffffffffffffffffffffffffffffff1681565b600081359050610beb81611282565b92915050565b600081359050610c0081611299565b92915050565b600080600060608486031215610c1b57600080fd5b6000610c2986828701610bdc565b9350506020610c3a86828701610bf1565b9250506040610c4b86828701610bf1565b9150509250925092565b600060208284031215610c6757600080fd5b6000610c7584828501610bf1565b91505092915050565b610c8781611041565b82525050565b610c968161102f565b82525050565b610ca581611053565b82525050565b610cb48161109b565b82525050565b6000610cc7601883610f5f565b9150610cd282611166565b602082019050919050565b6000610cea602f83610f5f565b9150610cf58261118f565b604082019050919050565b6000610d0d601e83610f5f565b9150610d18826111de565b602082019050919050565b6000610d30601283610f5f565b9150610d3b82611207565b602082019050919050565b6000610d53601f83610f5f565b9150610d5e82611230565b602082019050919050565b6000610d76601083610f5f565b9150610d8182611259565b602082019050919050565b610d9581611091565b82525050565b6000602082019050610db06000830184610c8d565b92915050565b6000602082019050610dcb6000830184610c7e565b92915050565b6000606082019050610de66000830186610c8d565b610df36020830185610c8d565b610e006040830184610d8c565b949350505050565b600060a082019050610e1d6000830188610cab565b610e2a6020830187610d8c565b610e376040830186610d8c565b610e446060830185610c7e565b610e516080830184610c9c565b9695505050505050565b60006020820190508181036000830152610e7481610cba565b9050919050565b60006020820190508181036000830152610e9481610cdd565b9050919050565b60006020820190508181036000830152610eb481610d00565b9050919050565b60006020820190508181036000830152610ed481610d23565b9050919050565b60006020820190508181036000830152610ef481610d46565b9050919050565b60006020820190508181036000830152610f1481610d69565b9050919050565b6000602082019050610f306000830184610d8c565b92915050565b6000604082019050610f4b6000830185610d8c565b610f586020830184610d8c565b9392505050565b600082825260208201905092915050565b6000610f7b82611091565b9150610f8683611091565b925082610f9657610f95611137565b5b828204905092915050565b6000610fac82611091565b9150610fb783611091565b9250817fffffffffffffffffffffffffffffffffffffffffffffffffffffffffffffffff0483118215151615610ff057610fef611108565b5b828202905092915050565b600061100682611091565b915061101183611091565b92508282101561102457611023611108565b5b828203905092915050565b600061103a82611071565b9050919050565b600061104c82611071565b9050919050565b60008115159050919050565b600061106a8261102f565b9050919050565b600073ffffffffffffffffffffffffffffffffffffffff82169050919050565b6000819050919050565b60006110a6826110ad565b9050919050565b60006110b882611071565b9050919050565b60006110ca82611091565b91507fffffffffffffffffffffffffffffffffffffffffffffffffffffffffffffffff8214156110fd576110fc611108565b5b600182019050919050565b7f4e487b7100000000000000000000000000000000000000000000000000000000600052601160045260246000fd5b7f4e487b7100000000000000000000000000000000000000000000000000000000600052601260045260246000fd5b7f6e6f20726566756e6420746f20746869732073656e6465720000000000000000600082015250565b7f6e6f7420656e6f75676820657468657220746f20707572636861736520616e6460008201527f20636f7665722067617320666565730000000000000000000000000000000000602082015250565b7f70726963652068617320746f2062652067726561746572207468616e20300000600082015250565b7f4e465420646f6573206e6f742065786973740000000000000000000000000000600082015250565b7f5265656e7472616e637947756172643a207265656e7472616e742063616c6c00600082015250565b7f4e465420616c726561647920736f6c6400000000000000000000000000000000600082015250565b61128b8161105f565b811461129657600080fd5b50565b6112a281611091565b81146112ad57600080fd5b5056fea26469706673582212207918a712a9637e831ef21a687ab01f010bf9d636d8ce153bcab84fc7157c6e8464736f6c63430008040033",
  "linkReferences": {},
  "deployedLinkReferences": {}
}