{
  "_format": "hh-sol-artifact-1",
  "contractName": "MyNft",
  "sourceName": "src/backend/contracts/MyNft.sol",
  "abi": [
    {
      "inputs": [],
      "stateMutability": "nonpayable",
      "type": "constructor"
    },
    {
      "anonymous": false,
      "inputs": [
        {
          "indexed": true,
          "internalType": "address",
          "name": "owner",
          "type": "address"
        },
        {
          "indexed": true,
          "internalType": "address",
          "name": "approved",
          "type": "address"
        },
        {
          "indexed": true,
          "internalType": "uint256",
          "name": "tokenId",
          "type": "uint256"
        }
      ],
      "name": "Approval",
      "type": "event"
    },
    {
      "anonymous": false,
      "inputs": [
        {
          "indexed": true,
          "internalType": "address",
          "name": "owner",
          "type": "address"
        },
        {
          "indexed": true,
          "internalType": "address",
          "name": "operator",
          "type": "address"
        },
        {
          "indexed": false,
          "internalType": "bool",
          "name": "approved",
          "type": "bool"
        }
      ],
      "name": "ApprovalForAll",
      "type": "event"
    },
    {
      "anonymous": false,
      "inputs": [
        {
          "indexed": true,
          "internalType": "address",
          "name": "from",
          "type": "address"
        },
        {
          "indexed": true,
          "internalType": "address",
          "name": "to",
          "type": "address"
        },
        {
          "indexed": true,
          "internalType": "uint256",
          "name": "tokenId",
          "type": "uint256"
        }
      ],
      "name": "Transfer",
      "type": "event"
    },
    {
      "inputs": [
        {
          "internalType": "address",
          "name": "to",
          "type": "address"
        },
        {
          "internalType": "uint256",
          "name": "tokenId",
          "type": "uint256"
        }
      ],
      "name": "approve",
      "outputs": [],
      "stateMutability": "nonpayable",
      "type": "function"
    },
    {
      "inputs": [
        {
          "internalType": "address",
          "name": "owner",
          "type": "address"
        }
      ],
      "name": "balanceOf",
      "outputs": [
        {
          "internalType": "uint256",
          "name": "",
          "type": "uint256"
        }
      ],
      "stateMutability": "view",
      "type": "function"
    },
    {
      "inputs": [
        {
          "internalType": "uint256",
          "name": "tokenId",
          "type": "uint256"
        }
      ],
      "name": "getApproved",
      "outputs": [
        {
          "internalType": "address",
          "name": "",
          "type": "address"
        }
      ],
      "stateMutability": "view",
      "type": "function"
    },
    {
      "inputs": [
        {
          "internalType": "address",
          "name": "owner",
          "type": "address"
        },
        {
          "internalType": "address",
          "name": "operator",
          "type": "address"
        }
      ],
      "name": "isApprovedForAll",
      "outputs": [
        {
          "internalType": "bool",
          "name": "",
          "type": "bool"
        }
      ],
      "stateMutability": "view",
      "type": "function"
    },
    {
      "inputs": [
        {
          "internalType": "string",
          "name": "_tokenURI",
          "type": "string"
        }
      ],
      "name": "mintNft",
      "outputs": [
        {
          "internalType": "uint256",
          "name": "",
          "type": "uint256"
        }
      ],
      "stateMutability": "nonpayable",
      "type": "function"
    },
    {
      "inputs": [],
      "name": "name",
      "outputs": [
        {
          "internalType": "string",
          "name": "",
          "type": "string"
        }
      ],
      "stateMutability": "view",
      "type": "function"
    },
    {
      "inputs": [
        {
          "internalType": "uint256",
          "name": "tokenId",
          "type": "uint256"
        }
      ],
      "name": "ownerOf",
      "outputs": [
        {
          "internalType": "address",
          "name": "",
          "type": "address"
        }
      ],
      "stateMutability": "view",
      "type": "function"
    },
    {
      "inputs": [],
      "name": "s_nftId",
      "outputs": [
        {
          "internalType": "uint256",
          "name": "_value",
          "type": "uint256"
        }
      ],
      "stateMutability": "view",
      "type": "function"
    },
    {
      "inputs": [
        {
          "internalType": "address",
          "name": "from",
          "type": "address"
        },
        {
          "internalType": "address",
          "name": "to",
          "type": "address"
        },
        {
          "internalType": "uint256",
          "name": "tokenId",
          "type": "uint256"
        }
      ],
      "name": "safeTransferFrom",
      "outputs": [],
      "stateMutability": "nonpayable",
      "type": "function"
    },
    {
      "inputs": [
        {
          "internalType": "address",
          "name": "from",
          "type": "address"
        },
        {
          "internalType": "address",
          "name": "to",
          "type": "address"
        },
        {
          "internalType": "uint256",
          "name": "tokenId",
          "type": "uint256"
        },
        {
          "internalType": "bytes",
          "name": "_data",
          "type": "bytes"
        }
      ],
      "name": "safeTransferFrom",
      "outputs": [],
      "stateMutability": "nonpayable",
      "type": "function"
    },
    {
      "inputs": [
        {
          "internalType": "address",
          "name": "operator",
          "type": "address"
        },
        {
          "internalType": "bool",
          "name": "approved",
          "type": "bool"
        }
      ],
      "name": "setApprovalForAll",
      "outputs": [],
      "stateMutability": "nonpayable",
      "type": "function"
    },
    {
      "inputs": [
        {
          "internalType": "bytes4",
          "name": "interfaceId",
          "type": "bytes4"
        }
      ],
      "name": "supportsInterface",
      "outputs": [
        {
          "internalType": "bool",
          "name": "",
          "type": "bool"
        }
      ],
      "stateMutability": "view",
      "type": "function"
    },
    {
      "inputs": [],
      "name": "symbol",
      "outputs": [
        {
          "internalType": "string",
          "name": "",
          "type": "string"
        }
      ],
      "stateMutability": "view",
      "type": "function"
    },
    {
      "inputs": [
        {
          "internalType": "uint256",
          "name": "tokenId",
          "type": "uint256"
        }
      ],
      "name": "tokenURI",
      "outputs": [
        {
          "internalType": "string",
          "name": "",
          "type": "string"
        }
      ],
      "stateMutability": "view",
      "type": "function"
    },
    {
      "inputs": [
        {
          "internalType": "address",
          "name": "from",
          "type": "address"
        },
        {
          "internalType": "address",
          "name": "to",
          "type": "address"
        },
        {
          "internalType": "uint256",
          "name": "tokenId",
          "type": "uint256"
        }
      ],
      "name": "transferFrom",
      "outputs": [],
      "stateMutability": "nonpayable",
      "type": "function"
    }
  ],
  "bytecode": "0x60806040523480156200001157600080fd5b506040518060400160405280600481526020017f6e616d65000000000000000000000000000000000000000000000000000000008152506040518060400160405280600681526020017f73796d626f6c0000000000000000000000000000000000000000000000000000815250816000908051906020019062000096929190620000b8565b508060019080519060200190620000af929190620000b8565b505050620001cd565b828054620000c69062000168565b90600052602060002090601f016020900481019282620000ea576000855562000136565b82601f106200010557805160ff191683800117855562000136565b8280016001018555821562000136579182015b828111156200013557825182559160200191906001019062000118565b5b50905062000145919062000149565b5090565b5b80821115620001645760008160009055506001016200014a565b5090565b600060028204905060018216806200018157607f821691505b602082108114156200019857620001976200019e565b5b50919050565b7f4e487b7100000000000000000000000000000000000000000000000000000000600052602260045260246000fd5b612c3480620001dd6000396000f3fe608060405234801561001057600080fd5b50600436106100f55760003560e01c80636352211e11610097578063b88d4fde11610066578063b88d4fde14610284578063c87b56dd146102a0578063da86f4a9146102d0578063e985e9c514610300576100f5565b80636352211e146101ea57806370a082311461021a57806395d89b411461024a578063a22cb46514610268576100f5565b8063095ea7b3116100d3578063095ea7b31461017857806323b872dd1461019457806326848f1a146101b057806342842e0e146101ce576100f5565b806301ffc9a7146100fa57806306fdde031461012a578063081812fc14610148575b600080fd5b610114600480360381019061010f9190611ca0565b610330565b60405161012191906120e7565b60405180910390f35b610132610412565b60405161013f9190612102565b60405180910390f35b610162600480360381019061015d9190611d33565b6104a4565b60405161016f9190612080565b60405180910390f35b610192600480360381019061018d9190611c64565b610529565b005b6101ae60048036038101906101a99190611b5e565b610641565b005b6101b86106a1565b6040516101c59190612324565b60405180910390f35b6101e860048036038101906101e39190611b5e565b6106ad565b005b61020460048036038101906101ff9190611d33565b6106cd565b6040516102119190612080565b60405180910390f35b610234600480360381019061022f9190611af9565b61077f565b6040516102419190612324565b60405180910390f35b610252610837565b60405161025f9190612102565b60405180910390f35b610282600480360381019061027d9190611c28565b6108c9565b005b61029e60048036038101906102999190611bad565b6108df565b005b6102ba60048036038101906102b59190611d33565b610941565b6040516102c79190612102565b60405180910390f35b6102ea60048036038101906102e59190611cf2565b610a93565b6040516102f79190612324565b60405180910390f35b61031a60048036038101906103159190611b22565b610aca565b60405161032791906120e7565b60405180910390f35b60007f80ac58cd000000000000000000000000000000000000000000000000000000007bffffffffffffffffffffffffffffffffffffffffffffffffffffffff1916827bffffffffffffffffffffffffffffffffffffffffffffffffffffffff191614806103fb57507f5b5e139f000000000000000000000000000000000000000000000000000000007bffffffffffffffffffffffffffffffffffffffffffffffffffffffff1916827bffffffffffffffffffffffffffffffffffffffffffffffffffffffff1916145b8061040b575061040a82610b5e565b5b9050919050565b6060600080546104219061257a565b80601f016020809104026020016040519081016040528092919081815260200182805461044d9061257a565b801561049a5780601f1061046f5761010080835404028352916020019161049a565b820191906000526020600020905b81548152906001019060200180831161047d57829003601f168201915b5050505050905090565b60006104af82610bc8565b6104ee576040517f08c379a00000000000000000000000000000000000000000000000000000000081526004016104e5906122a4565b60405180910390fd5b6004600083815260200190815260200160002060009054906101000a900473ffffffffffffffffffffffffffffffffffffffff169050919050565b6000610534826106cd565b90508073ffffffffffffffffffffffffffffffffffffffff168373ffffffffffffffffffffffffffffffffffffffff1614156105a5576040517f08c379a000000000000000000000000000000000000000000000000000000000815260040161059c906122e4565b60405180910390fd5b8073ffffffffffffffffffffffffffffffffffffffff166105c4610c34565b73ffffffffffffffffffffffffffffffffffffffff1614806105f357506105f2816105ed610c34565b610aca565b5b610632576040517f08c379a0000000000000000000000000000000000000000000000000000000008152600401610629906121e4565b60405180910390fd5b61063c8383610c3c565b505050565b61065261064c610c34565b82610cf5565b610691576040517f08c379a000000000000000000000000000000000000000000000000000000000815260040161068890612304565b60405180910390fd5b61069c838383610dd3565b505050565b60078060000154905081565b6106c8838383604051806020016040528060008152506108df565b505050565b6000806002600084815260200190815260200160002060009054906101000a900473ffffffffffffffffffffffffffffffffffffffff169050600073ffffffffffffffffffffffffffffffffffffffff168173ffffffffffffffffffffffffffffffffffffffff161415610776576040517f08c379a000000000000000000000000000000000000000000000000000000000815260040161076d90612224565b60405180910390fd5b80915050919050565b60008073ffffffffffffffffffffffffffffffffffffffff168273ffffffffffffffffffffffffffffffffffffffff1614156107f0576040517f08c379a00000000000000000000000000000000000000000000000000000000081526004016107e790612204565b60405180910390fd5b600360008373ffffffffffffffffffffffffffffffffffffffff1673ffffffffffffffffffffffffffffffffffffffff168152602001908152602001600020549050919050565b6060600180546108469061257a565b80601f01602080910402602001604051908101604052809291908181526020018280546108729061257a565b80156108bf5780601f10610894576101008083540402835291602001916108bf565b820191906000526020600020905b8154815290600101906020018083116108a257829003601f168201915b5050505050905090565b6108db6108d4610c34565b838361103a565b5050565b6108f06108ea610c34565b83610cf5565b61092f576040517f08c379a000000000000000000000000000000000000000000000000000000000815260040161092690612304565b60405180910390fd5b61093b848484846111a7565b50505050565b606061094c82610bc8565b61098b576040517f08c379a000000000000000000000000000000000000000000000000000000000815260040161098290612284565b60405180910390fd5b60006006600084815260200190815260200160002080546109ab9061257a565b80601f01602080910402602001604051908101604052809291908181526020018280546109d79061257a565b8015610a245780601f106109f957610100808354040283529160200191610a24565b820191906000526020600020905b815481529060010190602001808311610a0757829003601f168201915b505050505090506000610a35611203565b9050600081511415610a4b578192505050610a8e565b600082511115610a80578082604051602001610a6892919061205c565b60405160208183030381529060405292505050610a8e565b610a898461121a565b925050505b919050565b6000610a9f60076112c1565b6000610aab60076112d7565b9050610ab733826112e5565b610ac18184611303565b80915050919050565b6000600560008473ffffffffffffffffffffffffffffffffffffffff1673ffffffffffffffffffffffffffffffffffffffff16815260200190815260200160002060008373ffffffffffffffffffffffffffffffffffffffff1673ffffffffffffffffffffffffffffffffffffffff16815260200190815260200160002060009054906101000a900460ff16905092915050565b60007f01ffc9a7000000000000000000000000000000000000000000000000000000007bffffffffffffffffffffffffffffffffffffffffffffffffffffffff1916827bffffffffffffffffffffffffffffffffffffffffffffffffffffffff1916149050919050565b60008073ffffffffffffffffffffffffffffffffffffffff166002600084815260200190815260200160002060009054906101000a900473ffffffffffffffffffffffffffffffffffffffff1673ffffffffffffffffffffffffffffffffffffffff1614159050919050565b600033905090565b816004600083815260200190815260200160002060006101000a81548173ffffffffffffffffffffffffffffffffffffffff021916908373ffffffffffffffffffffffffffffffffffffffff160217905550808273ffffffffffffffffffffffffffffffffffffffff16610caf836106cd565b73ffffffffffffffffffffffffffffffffffffffff167f8c5be1e5ebec7d5bd14f71427d1e84f3dd0314c0f7b2291e5b200ac8c7c3b92560405160405180910390a45050565b6000610d0082610bc8565b610d3f576040517f08c379a0000000000000000000000000000000000000000000000000000000008152600401610d36906121c4565b60405180910390fd5b6000610d4a836106cd565b90508073ffffffffffffffffffffffffffffffffffffffff168473ffffffffffffffffffffffffffffffffffffffff161480610db957508373ffffffffffffffffffffffffffffffffffffffff16610da1846104a4565b73ffffffffffffffffffffffffffffffffffffffff16145b80610dca5750610dc98185610aca565b5b91505092915050565b8273ffffffffffffffffffffffffffffffffffffffff16610df3826106cd565b73ffffffffffffffffffffffffffffffffffffffff1614610e49576040517f08c379a0000000000000000000000000000000000000000000000000000000008152600401610e4090612144565b60405180910390fd5b600073ffffffffffffffffffffffffffffffffffffffff168273ffffffffffffffffffffffffffffffffffffffff161415610eb9576040517f08c379a0000000000000000000000000000000000000000000000000000000008152600401610eb090612184565b60405180910390fd5b610ec4838383611377565b610ecf600082610c3c565b6001600360008573ffffffffffffffffffffffffffffffffffffffff1673ffffffffffffffffffffffffffffffffffffffff1681526020019081526020016000206000828254610f1f9190612490565b925050819055506001600360008473ffffffffffffffffffffffffffffffffffffffff1673ffffffffffffffffffffffffffffffffffffffff1681526020019081526020016000206000828254610f769190612409565b92505081905550816002600083815260200190815260200160002060006101000a81548173ffffffffffffffffffffffffffffffffffffffff021916908373ffffffffffffffffffffffffffffffffffffffff160217905550808273ffffffffffffffffffffffffffffffffffffffff168473ffffffffffffffffffffffffffffffffffffffff167fddf252ad1be2c89b69c2b068fc378daa952ba7f163c4a11628f55a4df523b3ef60405160405180910390a461103583838361137c565b505050565b8173ffffffffffffffffffffffffffffffffffffffff168373ffffffffffffffffffffffffffffffffffffffff1614156110a9576040517f08c379a00000000000000000000000000000000000000000000000000000000081526004016110a0906121a4565b60405180910390fd5b80600560008573ffffffffffffffffffffffffffffffffffffffff1673ffffffffffffffffffffffffffffffffffffffff16815260200190815260200160002060008473ffffffffffffffffffffffffffffffffffffffff1673ffffffffffffffffffffffffffffffffffffffff16815260200190815260200160002060006101000a81548160ff0219169083151502179055508173ffffffffffffffffffffffffffffffffffffffff168373ffffffffffffffffffffffffffffffffffffffff167f17307eab39ab6107e8899845ad3d59bd9653f200f220920489ca2b5937696c318360405161119a91906120e7565b60405180910390a3505050565b6111b2848484610dd3565b6111be84848484611381565b6111fd576040517f08c379a00000000000000000000000000000000000000000000000000000000081526004016111f490612124565b60405180910390fd5b50505050565b606060405180602001604052806000815250905090565b606061122582610bc8565b611264576040517f08c379a000000000000000000000000000000000000000000000000000000000815260040161125b906122c4565b60405180910390fd5b600061126e611203565b9050600081511161128e57604051806020016040528060008152506112b9565b8061129884611518565b6040516020016112a992919061205c565b6040516020818303038152906040525b915050919050565b6001816000016000828254019250508190555050565b600081600001549050919050565b6112ff8282604051806020016040528060008152506116c5565b5050565b61130c82610bc8565b61134b576040517f08c379a000000000000000000000000000000000000000000000000000000000815260040161134290612244565b60405180910390fd5b8060066000848152602001908152602001600020908051906020019061137292919061191d565b505050565b505050565b505050565b60006113a28473ffffffffffffffffffffffffffffffffffffffff16611720565b1561150b578373ffffffffffffffffffffffffffffffffffffffff1663150b7a026113cb610c34565b8786866040518563ffffffff1660e01b81526004016113ed949392919061209b565b602060405180830381600087803b15801561140757600080fd5b505af192505050801561143857506040513d601f19601f820116820180604052508101906114359190611cc9565b60015b6114bb573d8060008114611468576040519150601f19603f3d011682016040523d82523d6000602084013e61146d565b606091505b506000815114156114b3576040517f08c379a00000000000000000000000000000000000000000000000000000000081526004016114aa90612124565b60405180910390fd5b805181602001fd5b63150b7a0260e01b7bffffffffffffffffffffffffffffffffffffffffffffffffffffffff1916817bffffffffffffffffffffffffffffffffffffffffffffffffffffffff191614915050611510565b600190505b949350505050565b60606000821415611560576040518060400160405280600181526020017f300000000000000000000000000000000000000000000000000000000000000081525090506116c0565b600082905060005b6000821461159257808061157b906125dd565b915050600a8261158b919061245f565b9150611568565b60008167ffffffffffffffff8111156115d4577f4e487b7100000000000000000000000000000000000000000000000000000000600052604160045260246000fd5b6040519080825280601f01601f1916602001820160405280156116065781602001600182028036833780820191505090505b5090505b600085146116b95760018261161f9190612490565b9150600a8561162e9190612626565b603061163a9190612409565b60f81b818381518110611676577f4e487b7100000000000000000000000000000000000000000000000000000000600052603260045260246000fd5b60200101907effffffffffffffffffffffffffffffffffffffffffffffffffffffffffffff1916908160001a905350600a856116b2919061245f565b945061160a565b8093505050505b919050565b6116cf8383611743565b6116dc6000848484611381565b61171b576040517f08c379a000000000000000000000000000000000000000000000000000000000815260040161171290612124565b60405180910390fd5b505050565b6000808273ffffffffffffffffffffffffffffffffffffffff163b119050919050565b600073ffffffffffffffffffffffffffffffffffffffff168273ffffffffffffffffffffffffffffffffffffffff1614156117b3576040517f08c379a00000000000000000000000000000000000000000000000000000000081526004016117aa90612264565b60405180910390fd5b6117bc81610bc8565b156117fc576040517f08c379a00000000000000000000000000000000000000000000000000000000081526004016117f390612164565b60405180910390fd5b61180860008383611377565b6001600360008473ffffffffffffffffffffffffffffffffffffffff1673ffffffffffffffffffffffffffffffffffffffff16815260200190815260200160002060008282546118589190612409565b92505081905550816002600083815260200190815260200160002060006101000a81548173ffffffffffffffffffffffffffffffffffffffff021916908373ffffffffffffffffffffffffffffffffffffffff160217905550808273ffffffffffffffffffffffffffffffffffffffff16600073ffffffffffffffffffffffffffffffffffffffff167fddf252ad1be2c89b69c2b068fc378daa952ba7f163c4a11628f55a4df523b3ef60405160405180910390a46119196000838361137c565b5050565b8280546119299061257a565b90600052602060002090601f01602090048101928261194b5760008555611992565b82601f1061196457805160ff1916838001178555611992565b82800160010185558215611992579182015b82811115611991578251825591602001919060010190611976565b5b50905061199f91906119a3565b5090565b5b808211156119bc5760008160009055506001016119a4565b5090565b60006119d36119ce84612364565b61233f565b9050828152602081018484840111156119eb57600080fd5b6119f6848285612538565b509392505050565b6000611a11611a0c84612395565b61233f565b905082815260208101848484011115611a2957600080fd5b611a34848285612538565b509392505050565b600081359050611a4b81612ba2565b92915050565b600081359050611a6081612bb9565b92915050565b600081359050611a7581612bd0565b92915050565b600081519050611a8a81612bd0565b92915050565b600082601f830112611aa157600080fd5b8135611ab18482602086016119c0565b91505092915050565b600082601f830112611acb57600080fd5b8135611adb8482602086016119fe565b91505092915050565b600081359050611af381612be7565b92915050565b600060208284031215611b0b57600080fd5b6000611b1984828501611a3c565b91505092915050565b60008060408385031215611b3557600080fd5b6000611b4385828601611a3c565b9250506020611b5485828601611a3c565b9150509250929050565b600080600060608486031215611b7357600080fd5b6000611b8186828701611a3c565b9350506020611b9286828701611a3c565b9250506040611ba386828701611ae4565b9150509250925092565b60008060008060808587031215611bc357600080fd5b6000611bd187828801611a3c565b9450506020611be287828801611a3c565b9350506040611bf387828801611ae4565b925050606085013567ffffffffffffffff811115611c1057600080fd5b611c1c87828801611a90565b91505092959194509250565b60008060408385031215611c3b57600080fd5b6000611c4985828601611a3c565b9250506020611c5a85828601611a51565b9150509250929050565b60008060408385031215611c7757600080fd5b6000611c8585828601611a3c565b9250506020611c9685828601611ae4565b9150509250929050565b600060208284031215611cb257600080fd5b6000611cc084828501611a66565b91505092915050565b600060208284031215611cdb57600080fd5b6000611ce984828501611a7b565b91505092915050565b600060208284031215611d0457600080fd5b600082013567ffffffffffffffff811115611d1e57600080fd5b611d2a84828501611aba565b91505092915050565b600060208284031215611d4557600080fd5b6000611d5384828501611ae4565b91505092915050565b611d65816124c4565b82525050565b611d74816124d6565b82525050565b6000611d85826123c6565b611d8f81856123dc565b9350611d9f818560208601612547565b611da881612713565b840191505092915050565b6000611dbe826123d1565b611dc881856123ed565b9350611dd8818560208601612547565b611de181612713565b840191505092915050565b6000611df7826123d1565b611e0181856123fe565b9350611e11818560208601612547565b80840191505092915050565b6000611e2a6032836123ed565b9150611e3582612724565b604082019050919050565b6000611e4d6025836123ed565b9150611e5882612773565b604082019050919050565b6000611e70601c836123ed565b9150611e7b826127c2565b602082019050919050565b6000611e936024836123ed565b9150611e9e826127eb565b604082019050919050565b6000611eb66019836123ed565b9150611ec18261283a565b602082019050919050565b6000611ed9602c836123ed565b9150611ee482612863565b604082019050919050565b6000611efc6038836123ed565b9150611f07826128b2565b604082019050919050565b6000611f1f602a836123ed565b9150611f2a82612901565b604082019050919050565b6000611f426029836123ed565b9150611f4d82612950565b604082019050919050565b6000611f65602e836123ed565b9150611f708261299f565b604082019050919050565b6000611f886020836123ed565b9150611f93826129ee565b602082019050919050565b6000611fab6031836123ed565b9150611fb682612a17565b604082019050919050565b6000611fce602c836123ed565b9150611fd982612a66565b604082019050919050565b6000611ff1602f836123ed565b9150611ffc82612ab5565b604082019050919050565b60006120146021836123ed565b915061201f82612b04565b604082019050919050565b60006120376031836123ed565b915061204282612b53565b604082019050919050565b6120568161252e565b82525050565b60006120688285611dec565b91506120748284611dec565b91508190509392505050565b60006020820190506120956000830184611d5c565b92915050565b60006080820190506120b06000830187611d5c565b6120bd6020830186611d5c565b6120ca604083018561204d565b81810360608301526120dc8184611d7a565b905095945050505050565b60006020820190506120fc6000830184611d6b565b92915050565b6000602082019050818103600083015261211c8184611db3565b905092915050565b6000602082019050818103600083015261213d81611e1d565b9050919050565b6000602082019050818103600083015261215d81611e40565b9050919050565b6000602082019050818103600083015261217d81611e63565b9050919050565b6000602082019050818103600083015261219d81611e86565b9050919050565b600060208201905081810360008301526121bd81611ea9565b9050919050565b600060208201905081810360008301526121dd81611ecc565b9050919050565b600060208201905081810360008301526121fd81611eef565b9050919050565b6000602082019050818103600083015261221d81611f12565b9050919050565b6000602082019050818103600083015261223d81611f35565b9050919050565b6000602082019050818103600083015261225d81611f58565b9050919050565b6000602082019050818103600083015261227d81611f7b565b9050919050565b6000602082019050818103600083015261229d81611f9e565b9050919050565b600060208201905081810360008301526122bd81611fc1565b9050919050565b600060208201905081810360008301526122dd81611fe4565b9050919050565b600060208201905081810360008301526122fd81612007565b9050919050565b6000602082019050818103600083015261231d8161202a565b9050919050565b6000602082019050612339600083018461204d565b92915050565b600061234961235a565b905061235582826125ac565b919050565b6000604051905090565b600067ffffffffffffffff82111561237f5761237e6126e4565b5b61238882612713565b9050602081019050919050565b600067ffffffffffffffff8211156123b0576123af6126e4565b5b6123b982612713565b9050602081019050919050565b600081519050919050565b600081519050919050565b600082825260208201905092915050565b600082825260208201905092915050565b600081905092915050565b60006124148261252e565b915061241f8361252e565b9250827fffffffffffffffffffffffffffffffffffffffffffffffffffffffffffffffff0382111561245457612453612657565b5b828201905092915050565b600061246a8261252e565b91506124758361252e565b92508261248557612484612686565b5b828204905092915050565b600061249b8261252e565b91506124a68361252e565b9250828210156124b9576124b8612657565b5b828203905092915050565b60006124cf8261250e565b9050919050565b60008115159050919050565b60007fffffffff0000000000000000000000000000000000000000000000000000000082169050919050565b600073ffffffffffffffffffffffffffffffffffffffff82169050919050565b6000819050919050565b82818337600083830152505050565b60005b8381101561256557808201518184015260208101905061254a565b83811115612574576000848401525b50505050565b6000600282049050600182168061259257607f821691505b602082108114156125a6576125a56126b5565b5b50919050565b6125b582612713565b810181811067ffffffffffffffff821117156125d4576125d36126e4565b5b80604052505050565b60006125e88261252e565b91507fffffffffffffffffffffffffffffffffffffffffffffffffffffffffffffffff82141561261b5761261a612657565b5b600182019050919050565b60006126318261252e565b915061263c8361252e565b92508261264c5761264b612686565b5b828206905092915050565b7f4e487b7100000000000000000000000000000000000000000000000000000000600052601160045260246000fd5b7f4e487b7100000000000000000000000000000000000000000000000000000000600052601260045260246000fd5b7f4e487b7100000000000000000000000000000000000000000000000000000000600052602260045260246000fd5b7f4e487b7100000000000000000000000000000000000000000000000000000000600052604160045260246000fd5b6000601f19601f8301169050919050565b7f4552433732313a207472616e7366657220746f206e6f6e20455243373231526560008201527f63656976657220696d706c656d656e7465720000000000000000000000000000602082015250565b7f4552433732313a207472616e736665722066726f6d20696e636f72726563742060008201527f6f776e6572000000000000000000000000000000000000000000000000000000602082015250565b7f4552433732313a20746f6b656e20616c7265616479206d696e74656400000000600082015250565b7f4552433732313a207472616e7366657220746f20746865207a65726f2061646460008201527f7265737300000000000000000000000000000000000000000000000000000000602082015250565b7f4552433732313a20617070726f766520746f2063616c6c657200000000000000600082015250565b7f4552433732313a206f70657261746f7220717565727920666f72206e6f6e657860008201527f697374656e7420746f6b656e0000000000000000000000000000000000000000602082015250565b7f4552433732313a20617070726f76652063616c6c6572206973206e6f74206f7760008201527f6e6572206e6f7220617070726f76656420666f7220616c6c0000000000000000602082015250565b7f4552433732313a2062616c616e636520717565727920666f7220746865207a6560008201527f726f206164647265737300000000000000000000000000000000000000000000602082015250565b7f4552433732313a206f776e657220717565727920666f72206e6f6e657869737460008201527f656e7420746f6b656e0000000000000000000000000000000000000000000000602082015250565b7f45524337323155524953746f726167653a2055524920736574206f66206e6f6e60008201527f6578697374656e7420746f6b656e000000000000000000000000000000000000602082015250565b7f4552433732313a206d696e7420746f20746865207a65726f2061646472657373600082015250565b7f45524337323155524953746f726167653a2055524920717565727920666f722060008201527f6e6f6e6578697374656e7420746f6b656e000000000000000000000000000000602082015250565b7f4552433732313a20617070726f76656420717565727920666f72206e6f6e657860008201527f697374656e7420746f6b656e0000000000000000000000000000000000000000602082015250565b7f4552433732314d657461646174613a2055524920717565727920666f72206e6f60008201527f6e6578697374656e7420746f6b656e0000000000000000000000000000000000602082015250565b7f4552433732313a20617070726f76616c20746f2063757272656e74206f776e6560008201527f7200000000000000000000000000000000000000000000000000000000000000602082015250565b7f4552433732313a207472616e736665722063616c6c6572206973206e6f74206f60008201527f776e6572206e6f7220617070726f766564000000000000000000000000000000602082015250565b612bab816124c4565b8114612bb657600080fd5b50565b612bc2816124d6565b8114612bcd57600080fd5b50565b612bd9816124e2565b8114612be457600080fd5b50565b612bf08161252e565b8114612bfb57600080fd5b5056fea264697066735822122082bfd53760e61445aec96e449bfe0d434a62fb7d7bed7c047fc6fb9d2c71c5c764736f6c63430008040033",
  "linkReferences": {},
  "deployedLinkReferences": {}
}